:02000004BF80BB
:10000000971110009381018093057000631AB50861
:100010007350401073504014B762000073B0021068
:10002000B702040073A0021017811100130181F8B8
:100030007310011417350000130505F19705100022
:10004000938545FC1386018163FCC500833205005E
:1000500023B055001305850093858500E3E8C5FEB0
:1000600017051000130505FB974511009385C5F38F
:100070006378B5002330050013058500E36CB5FEF9
:10008000130500009305000013060000EF208058C0
:10009000730050106FF0DFFF730050106FF0DFFF40
:0800A000730050106FF0DFFF48
:10010000930705012334F5001307F0FF2338E500BA
:10011000233CF5002330F502233005006780000002
:1001200023300502678000008337850023B4F50083
:1001300003B7070123B8E5002334B70023B8B7009D
:1001400023B0A50283370500938717002330F500FD
:100150006780000003B605009307F0FF6300F60414
:10016000930705019386070083B7870003B707004D
:10017000E37AE6FE83B7860023B4F50023B8B70020
:1001800023B8D50023B4B60023B0A50283370500F9
:10019000938717002330F50067800000833605023F
:1001A0006FF05FFD83370502833685000337050155
:1001B00023B8E600833685002334D70003B78700D1
:1001C000630EA7002330050203B707001307F7FFEC
:1001D00023B0E70003B5070067800000033705017F
:1001E00023B4E7006FF01FFE130101FF2334110059
:1001F0002330810013040500EF10001103370407BA
:10020000833784076300F70213040000EF10C01265
:100210001305040083308100033401001301010140
:1002200067800000130410006FF05FFE130101FFF0
:10023000233411002330810013040500EF10C00C9B
:10024000833704076390070213041000EF10C00EF9
:100250001305040083308100033401001301010100
:1002600067800000130400006FF05FFE130101FEC1
:10027000233C1100233881002334910023302101D5
:100280001304050093040600033905070336050827
:10029000631006048337050063840702130500001A
:1002A000930719002338F4068330810103340101D8
:1002B00083348100033901001301010267800000CB
:1002C00003350501EF001076233804006FF05FFD61
:1002D000639A040203358500EF20501D83378400A4
:1002E00003370408B387E7002334F400033704011D
:1002F00063E2E706833704002334F4001385040027
:100300006FF01FFA03358501EF20501A83378401FF
:1003100003370408B306E040B387E740233CF4000A
:100320000337040063F8E70083370401B387D7007D
:10033000233CF400930720006386F40013050000BB
:100340006FF01FF6630C09001309F9FF1305000095
:100350006FF01FF5138504006FF09FF41305000084
:100360006FF01FF4930705000336050863000604C9
:10037000130101FF233411001385050003B7870122
:100380003307C70023BCE70083B607016366D700C5
:1003900003B7070023BCE70083B58701EF201011E6
:1003A0008330810013010101678000006780000035
:1003B000130101FE233C11002338810023349100F6
:1003C00093040500EF00507403C494081B148401C7
:1003D0001B5484416F0000011B04F4FF1B148401B3
:1003E0001B5484416350800283B78404638C0700EC
:1003F00013858404EF00D050E30005FEEF00905E0B
:100400006FF09FFD9307F0FFA384F408EF00D07214
:10041000EF00906F03C484081B1484011B548441B3
:100420006F0000011B04F4FF1B1484011B54844162
:100430006350800283B70402638C070013850402B3
:10044000EF00104CE30005FEEF00D0596FF09FFD68
:100450009307F0FF2384F408EF00106E83308101CE
:10046000033401018334810013010102678000001D
:10047000130101FE233C1100233881002334910035
:100480001304050093840500EF001068833704000F
:1004900083368407033704083386E6023386C700B1
:1004A0002338C400233804062334F4009386F6FF6F
:1004B0003307D702B387E700233CF4009307F0FF2C
:1004C0002304F408A304F4086390040483370402AB
:1004D00063900702EF00506613051000833081011E
:1004E000033401018334810013010102678000009D
:1004F00013050402EF00D040E30E05FC13050008CD
:10050000EF1050776FF01FFD13050402EFF05FBF8F
:1005100013058404EFF0DFBE6FF0DFFB130101FE73
:10052000233C11002338810023349100938406007A
:1005300013040700639A05022330E400233CA40659
:100540002330B4089305100013050400EFF05FF2A8
:10055000230C94088330810103340101833481002A
:1005600013010102678000002330C7006FF01FFDF8
:10057000130101FD2334110223308102233C910039
:100580002338210123343101930405001389050028
:10059000930906003305B5021305050AEF109032E2
:1005A00013040500630E0500130705009386090078
:1005B0001306050A9305090013850400EFF01FF6E2
:1005C0001305040083308102033401028334810166
:1005D00003390101833981001301010367800000A1
:1005E000130101FB2334110423308104233C9102C5
:1005F00023382103233431031304050093890500B4
:100600002334C10093840600130900006F00000A20
:10061000138604009385090013050400EFF01FC53D
:10062000833784046396070263100504EF00D050FB
:1006300013051000833081040334010483348103E3
:10064000033901038339810213010105678000002A
:1006500013058404EF00D02AE30A05FC1305000803
:10066000EF1050616FF09FFC13050008EF109060D1
:100670006FF0DFFBEF00504C130500006FF09FFBA5
:1006800013050101EF005034130910006F004004FE
:10069000230404086F00C005A30404086F0080064B
:1006A00013050400EFF0DFD0EF00907DEF00D045A0
:1006B0000337040783378407E36CF7F493072000BC
:1006C000E388F4F483378100E38607FAE30A09FA42
:1006D000EF009046EF00806EEF00104383478408E0
:1006E0009B9787019BD787411307F0FFE382E7FAC7
:1006F000834794089B9787019BD787411307F0FF97
:10070000E38CE7F8EF0050439305810013050101E6
:10071000EF10C00F631C050213050400EFF0DFACFF
:10072000E30005F88335810013050402EF009014FF
:1007300013050400EFF0DFC7EF009074E31805F62F
:1007400013050008EF1010536FF05FF61305040057
:10075000EFF01FC6EF00D072130500006FF09FEDA1
:10076000130101FE233C1100233881002334910042
:100770002330210113040500130906001386060027
:1007800003370507833785076364F7029307200063
:100790006380F602130500008330810103340101F8
:1007A00083348100033901001301010267800000D6
:1007B000834494089B9484019BD484418337040729
:1007C00013050400EFF09FAA9307F0FF638EF40077
:1007D0009B8414009B9484019BD48441A3049408BB
:1007E000130510006FF05FFB8337840463960700E6
:1007F000130510006FF05FFA13058404EF0050102A
:10080000630C0500630E0900930710002330F90004
:10081000130510006FF05FF8130510006FF0DFF79D
:10082000130510006FF05FF7130101FB233411046F
:1008300023308104233C91022338210323343103E4
:1008400013040500938905002334C1001309000037
:100850006F00000B9385090013050400EFF09FB0B3
:100860009384F4FF233894068337040263940702C9
:10087000EF00902C13051000833081040334010431
:100880008334810303390103833981021301010594
:100890006780000013050402EF009006E30A05FCE0
:1008A00013050008EF10103D6FF09FFCEF00D028FB
:1008B000130500006FF05FFC13050101EF00D0107D
:1008C000130910006F004005230404086F00C006E0
:1008D000A30404086F00800713050400EFF05FAD68
:1008E000EF00105A6F00C00113050400EFF05FAC79
:1008F000EF00105913050400EFF05F93631C050827
:10090000EF00902083340407E39604F483378100DA
:10091000E38E07F8E30209FAEF001022EF00004A25
:10092000EF00901E834784089B9787019BD78741E0
:100930001307F0FFE38AE7F8834794089B97870142
:100940009BD787411307F0FFE384E7F8EF00D01E41
:100950009305810013050101EF00506BE31605F8C4
:1009600013050400EFF09F8CE30805F68335810042
:1009700013058404EF00007013050400EFF05FA37B
:10098000EF001050E31E05F613050008EF10902E3F
:100990006FF01FF7130500006FF01FEE93070000C4
:1009A00013077000636EF7029396470017F70F0066
:1009B000130747743307D7000337070063060700A0
:1009C000938717006FF0DFFD17F70F00130787728B
:1009D000B307D70023B0B70023B4A7006780000097
:1009E00067800000130101FE233C110023388100C1
:1009F0002334910023302101130405009384050062
:100A000013090600EF005010834784089B97870165
:100A10009BD787411307F0FF6382E704834794085D
:100A20009B9787019BD787411307F0FF638CE702F1
:100A3000EF00901083370407638A07021305040050
:100A4000EFF01F978330810103340101833481006B
:100A50000339010013010102678000002304040828
:100A60006FF0DFFBA30404086FF09FFC130609007E
:100A70009385040013058404EF0080636FF01FFC6E
:100A800097F70F0083B7875F83B70700639A070064
:100A90009307F0FF17F70F002336F7586780000021
:100AA00097F70F0083B7875D83B7870183B7070088
:100AB00017F70F002338F75667800000130101FF76
:100AC000233411002330810013040500033505068B
:100AD000EF10007713050400EF108076833081005B
:100AE000033401001301010167800000130101FCC0
:100AF000233C110223388102233491022330210345
:100B0000233C310123384101233451012330610159
:100B1000930A05009384050013090600138B060051
:100B200093090700138A07001304080093170602AD
:100B300013D6D7019305500A03350806EF20602B22
:100B4000833704061B09F9FF131709021359D7014C
:100B500033892701137909FF6386040C9308000089
:100B60001308F000636018033388140103080800B9
:100B70003303140123040307630608009388180055
:100B80006FF01FFEA30B04069307600063F43701A8
:100B900093096000233C340523383409233C0408BE
:100BA00013058400EFF0CFD713050403EFF04FD700
:100BB0002330840293077000B38737412338F4024F
:100BC00023348404233C04062300040AA300040AFB
:100BD0002301040AA301040A2302040AA302040A4B
:100BE00013060B0093850A0013050900EF2040014E
:100BF0002330A40063040A0023308A008330810379
:100C000003340103833481020339010283398101F2
:100C1000033A0101833A8100033B010013010104FF
:100C200067800000230404066FF01FF6130101FF24
:100C30002334110023308100130400006F000002F0
:100C400093172400B387870013973700138581A378
:100C50003305E500EFF0CFCA1304140093076000DA
:100C6000E3F087FE138501A1EFF08FC91385819E04
:100C7000EFF00FC91385019CEFF08FC813858199A0
:100C8000EFF00FC813850197EFF08FC7938701A18D
:100C900017F70F002334F73E9387819E17F70F0055
:100CA000233AF73C83308100033401001301010132
:100CB00067800000130101FE233C110023388100EE
:100CC000233491002330210113040500938405008F
:100CD00017F90F000339893897F70F009387873A80
:100CE00003B70700A302070A03B507001305850031
:100CF000EFF04FCB6318050297F70F0083B78738E3
:100D000003B7870593071000B397E70093C7F7FF72
:100D100097F60F009386063403B70600B377F70003
:100D200023B0F6009307F0FF6304F4043304890052
:100D300097F70F0083B7073523B48700637824053E
:100D400017F50F000335053397F50F0083B585338D
:100D500093858500EFF00FC08330810103340101DA
:100D60008334810003390100130101026780000010
:100D7000E38E04FA97F50F0083B5C530938585009F
:100D800013850197EFF04FBA6FF01FFD17F50F00B5
:100D90000335C52E97F50F0083B5C52E93858500C5
:100DA000EFF04FBB97F70F0083B7C727E376F4FA4E
:100DB00097F70F0023B887266FF01FFA17F70F0079
:100DC0001307472583370700938717002330F70061
:100DD0006780000017F50F00033545286780000085
:100DE000130101FD2334110223308102233C9100C1
:100DF000233821012334310197F70F0083B787216E
:100E00006396071697F70F009387472503B90700E6
:100E10001309190023B02701630C090497F70F0089
:100E200083B747206372F9129309000097F70F0008
:100E300083B7472503B7870593172700B387E700D4
:100E400013973700938781A3B387E70003B70700A1
:100E50009307100063F4E7009309100097F70F0061
:100E600083B7C71D63800712930910006F008011BC
:100E700017F70F00130787208336070097F70F0037
:100E80009387471F03B607002330C70023B0D7005E
:100E900017F70F001307071A833707009387170008
:100EA0002330F700EFF0DFBD6FF05FF7930910001C
:100EB00097F70F0083B7871C83B70700638A07087B
:100EC00097F70F0083B7871B83B7870103B48701A8
:100ED000833784006366F908930484001385040053
:100EE000EFF04FAC83370405638607001305040356
:100EF000EFF04FAB0337840593071000B397E7007B
:100F000097F60F009386061503B60600B3E7C700F1
:100F100023B0F60093172700B387E7001397370035
:100F200093850400138581A33305E500EFF0CF9F7F
:100F30000337840597F70F0083B7C71483B7870576
:100F4000E376F7F66FF0DFF6930900006FF05FF6D7
:100F50009307F0FF17F70F002336F70C6FF01FED24
:100F600017F70F002330F70C6FF05FEC17F70F0047
:100F70001307470D83370700938717002330F700C7
:100F800093090000138509008330810203340102B4
:100F90008334810103390101833981001301010385
:100FA0006780000097F70F0083B7C706638A0700C2
:100FB0009307100017F70F002332F708678000002F
:100FC00097F70F0023BC070697F70F0083B7870832
:100FD0009B87070063820708130700006F00C000AB
:100FE0001B0717009B971700E3DC07FE1317070288
:100FF000135707029307F001B387E740938581A356
:10100000939627003386F600131736003387E500E2
:1010100003368700033686002334C700B386F60004
:1010200013973600130707013307B700630AE60278
:1010300013972700B307F70013973700938781A30F
:10104000B387E70083B7870083B7870117F70F00DF
:10105000233AF70267800000130700026FF01FF9C0
:1010600003368600939636003387D5002334C700B5
:101070006FF01FFC130101FF2334110023308100A6
:101080001384050097F50F0083B5C5FF938505030D
:10109000EFF04F8C9305100013050400EFF09FC193
:1010A00083308100033401001301010167800000D7
:1010B000130101FE233C11002338810023349100E9
:1010C000938405001304060097F50F0083B585FB94
:1010D00093850503EFF04F85630404009304F0FF4C
:1010E0009305040013850400EFF0DFBC8330810119
:1010F0000334010183348100130101026780000081
:10110000130101FE233C1100233881002334910098
:101110008337850103B48701930404031385040016
:10112000EFF04F8897F70F0083B7C7EE6392070879
:101130009304840013850400EFF0CF860337840501
:1011400093071000B397E70097F60F00938686F099
:1011500003B60600B3E7C70023B0F60093172700D5
:10116000B387E7009397370093850400138581A325
:101170003305F500EFE05FFB0337840597F70F00B9
:1011800083B747F083B7870563FCE7029307100036
:1011900017F70F002334F7EA13051000833081019D
:1011A00003340101833481001301010267800000D0
:1011B000938504001385019CEFE01FF76FF0DFFBC0
:1011C000130500006FF09FFD97F70F0083B787E6C8
:1011D0002330F50097F70F0083B747E82334F50075
:1011E000678000009307100017F70F002338F7E41B
:1011F0006780000097F70F0083B747E56380070219
:1012000097F70F0083B707E1638607001305000017
:1012100067800000130520006780000013051000A0
:1012200067800000630A050C130101FE233C1100D6
:101230002338810023349100130405008337850986
:101240009387F7FF233CF5088336850503370509A7
:101250006388E60A638E070013050000833081016E
:10126000033401018334810013010102678000000F
:101270009304850013850400EFE0DFF26314050298
:101280000337840593071000B397E70093C7F7FF70
:1012900017F70F00130707DC83360700B3F7D700F3
:1012A0002330F70003370409233CE404930770005C
:1012B000B387E7402338F40293071000B397E700A1
:1012C00097F60F00938606D903B60600B3E7C7006A
:1012D00023B0F60093172700B387E70093973700F2
:1012E00093850400138581A33305F500EFE0DFE368
:1012F000130510006FF09FF61305000067800000D3
:10130000130500006FF09FF57370011097F70F0041
:1013100083B7C7D36380070217F70F00130787D679
:101320008336070083B786079387170023BCF6062A
:10133000833707006780000097F70F0083B707D156
:10134000638E070297F70F0083B7C7D383B787076A
:101350006386070217F70F001307C7D2833607000B
:1013600083B786079387F7FF23BCF606833707000A
:1013700083B78707639407007360011067800000DC
:10138000130101FF233411002330810013040500F1
:10139000EFF09FF717F70F001307C7CC833707004D
:1013A000938717002330F70097F70F0083B787CD97
:1013B0006388070297F70F0083B747C9639E070248
:1013C00097F70F0083B707CC03B7870583378405EA
:1013D00063E4E70297F70F0023B687CA6F00C001E6
:1013E00097F70F0023B087CA17F70F00033787C797
:1013F000930710006306F70817F70F00130707C3DA
:1014000083370700938717002330F7002330F40851
:101410000337840593071000B397E70097F60F0092
:10142000938646C303B60600B3E7C70023B0F600B1
:1014300093172700B387E70093973700930584003D
:10144000138581A33305F500EFE01FCEEFF0DFEE4B
:1014500097F70F0083B787BF638C070097F70F00DC
:1014600083B747C203B7870583378405636EF700E8
:101470008330810003340100130101016780000003
:10148000EFF0CFFA6FF05FF713050008EF00907EE2
:101490006FF01FFE130101FB23341104233081047C
:1014A000233C9102233821032334310323304103A9
:1014B000233C5101233861012334710113090500D4
:1014C0009389050093040600138A0600930A070017
:1014D000138B070013153600EF00D03E630005069E
:1014E000130405001305800AEF00D03D930B05009F
:1014F000630E0502233085069308000013080500DB
:1015000093070B0013870A0093060A001386040052
:101510009385090013050900EFF04FDD13850B00DB
:10152000EFF01FE6130510006F00800113050400A3
:10153000EF0010511305F0FF6F0080001305F0FF5E
:1015400083308104033401048334810303390103AC
:1015500083398102033A0102833A8101033B01018D
:10156000833B81001301010567800000130101FF27
:101570002334110097F70F00938747AA1307000041
:10158000930600001306002097250000938585919F
:10159000170500001305050EEFF0DFEF93071000AD
:1015A000630CF50097F70F0083B7C7A58330810060
:1015B0001301010167800000EF0000449307100051
:1015C000E312F5FE737001109307F0FF17F70F0099
:1015D000233AF7A49307100017F70F002338F7A654
:1015E00097F70F0023BC07A6EF0010196FF09FFBC1
:1015F00097F70F0083B787A7638A0706130101FFD8
:101600002334110023308100EFF01FD083B7019BFA
:1016100003B4870113058400EFE0DFB817F70F006C
:10162000130747A4833707009387F7FF2330F7009A
:1016300017F70F00130787A3833707009387F7FF78
:101640002330F700EFF05FCF13050400EFF00FC772
:1016500097F70F0083B787A1E39807FA83308100DB
:10166000033401001301010167800000678000005E
:10167000130101FF23341100EFF09FF76FF0DFFF3C
:10168000130101FE233C1100233881002334910013
:10169000EFF09FC797F70F009387C79703B707002F
:1016A0001307F7FF23B0E70083B70700639E070E19
:1016B00097F70F0083B7079B63960700130400009A
:1016C0006F00C00E1304000083B7019C63800708FD
:1016D00083B7819D03B4870113050403EFE09FAC3A
:1016E0009304840013850400EFE0DFAB0337840527
:1016F00093071000B397E70097F60F00938686953F
:1017000003B60600B3E7C70023B0F600931727001F
:10171000B387E7009397370093850400138581A36F
:101720003305F500EFE05FA00337840597F70F005E
:1017300083B7479583B78705E368F7F893071000E9
:1017400017F70F00233CF78E6FF01FF863040400B7
:10175000EFF00FB317F40F000334C48E63140402C8
:1017600017F40F000334848D63020404130500088A
:10177000EF005050130410006F0040031304F4FFF7
:10178000630E0400EFF0CFE5E30A05FE93071000B7
:1017900017F70F002334F78A6FF05FFE97F70F00FB
:1017A00023B2078A6FF0DFFB13040000EFF0DFB80D
:1017B0001305040083308101033401018334810067
:1017C0001301010267800000130101FF233411009F
:1017D000233081006300050213040500EFF00FDEE3
:1017E0009305000013050400EFF0CFCCEFF05FE9A4
:1017F0006316050013050008EF00D0478330810011
:10180000033401001301010167800000130101FE90
:10181000233C110023388100233491001304050078
:1018200093840500EFF05FAE17F70F0003370783CF
:10183000833784003306F74097F60F0083B686841B
:1018400083C6560A6388060297F70F0083B787831B
:10185000A382070A13041000EFF01FAE1305040063
:1018600083308101033401018334810013010102BB
:101870006780000083B604009305F0FF6388B60418
:101880000335040097E50F0083B5C57A630AB500F8
:101890006368F70023B00400130410006FF0DFFB4F
:1018A0006368D60023B00400130410006FF0DFFA61
:1018B000B387E740B387D70023B0F40013050400D3
:1018C000EFF09F90130400006FF01FF91304000065
:1018D0006FF09FF817E70F000337477D8337070046
:1018E000639E0700930710002330F500639C0700F8
:1018F0008337870103B50700678000009307000066
:101900006FF09FFE1305000067800000130101FFC8
:10191000233411002334B5002330A502636CB602D2
:101920003306D64083370503636AF60013051000BB
:101930008330810013010101678000009305850059
:1019400017E50F0003350576EFE0DF801305000093
:101950006FF01FFE6374D60063FED500930585000B
:1019600017E50F0003358574EFE0CFFE1305000087
:101970006FF01FFC130510006FF09FFB130101FFB8
:1019800023341100EFF05F9897E70F0083B70771DA
:10199000638A0700EFF05F9A833081001301010131
:1019A00067800000138581B7EFE08FF5138501B5DF
:1019B000EFE00FF5938781B717E70F002338F76E35
:1019C000938701B517E70F00233EF76C130600005D
:1019D0009305000213056000EFE09FB997E70F0041
:1019E00023BEA76AE30805FA971500009385054C06
:1019F000EFE0DFFA6FF01FFA130101FF233411004B
:101A0000EFF0DFF797E70F0083B74769638C0702B2
:101A100097E70F009387076813076000930600009D
:101A20001306E006971500009385C54817050000CA
:101A30001305454DEFF01FA683308100130101010E
:101A400067800000130500006FF01FFF130101FD08
:101A500023341102233081021304070017E70F001B
:101A60000337C76363020708938706002330B1007A
:101A70002334C1002338A1009306500063C4B60488
:101A8000EFF04FF7930720006300F5029306000084
:101A9000130600009305010017E50F0003350560EC
:101AA000EFE01FB46F00400393060000130604002C
:101AB0009305010017E50F000335455EEFE05FB2C7
:101AC0006F00800193060000138607009305010054
:101AD00013050700EFE0DFC8833081020334010201
:101AE0001301010367800000130500006FF0DFFEA3
:101AF00097E70F0083B7875B03B707006306070C00
:101B0000130101FE233C110023388100233491008E
:101B10002330210183B7870103B9070003B487018C
:101B20009304840013850400EFE0CFE783370404B7
:101B300013050400E78007008347040593F7470077
:101B40006392070497E70F0083B7475603B7070070
:101B5000E31207FC17E70F001307C754833607008B
:101B600017E60F002334D6542330F7008330810169
:101B700003340101833481000339010013010102A0
:101B80006780000083370403B38727016370F9027D
:101B90002334F400233084029385040017E50F00FA
:101BA0000335C550EFE00FDB6FF0DFF913070000DE
:101BB00093060000130609009305000013050400B6
:101BC000EFF0DFE86FF01FF817E70F001307874DFE
:101BD0008336070017E60F00233AD64C2330F70070
:101BE00067800000130101FE233C110023388100AF
:101BF0002334910093040500EFF0CF9D13040500FA
:101C000097E70F0083B787486364F50223B00400A9
:101C100097E70F0023BC874613050400833081013A
:101C20000334010183348100130101026780000045
:101C3000EFF01FEC9307100023B0F4006FF05FFD8E
:101C4000130101FE233C110023388100233491004D
:101C500023302101930405001389050097E70F0045
:101C600083B7C74483B7870103B487011305840092
:101C7000EFE04FD38347040513F7470063180702CB
:101C800093F7E7FF2308F4048337040413050400E3
:101C9000E780070083308101033401018334810030
:101CA000033901001301010267800000833504033A
:101CB0009386040013060900B385950013050400FC
:101CC000EFF0DFC4E30205FC1307000093060000F9
:101CD000138604009305000013050400EFF01FD7DE
:101CE0006FF09FFA130101FD2334110223308102AA
:101CF000233C9100233821011309050013840500BA
:101D0000EFF0CF8B13058100EFF0DFED833781001B
:101D1000639207089304050063180404637C250399
:101D200013060400B305994017E50F000335053786
:101D3000EFE05FCBEFF0DF946308050483308102AE
:101D400003340102833481010339010113010103CA
:101D500067800000EFF0DF9293850400130509000F
:101D6000EFF01FEE6FF09FFD17E70F00033787338B
:101D70000337070063160700130410006FF05FFAC3
:101D8000138407006FF0DFF913050008EF00806E81
:101D90006FF0DFFAEFF0DF8E6FF05FFA130101FCF6
:101DA000233C1102233881026F00C00083370101F8
:101DB00063DC0702130600009305010117E50F001D
:101DC0000335C52DEFE05FA66304051283370101DB
:101DD000E3DE07FC8325810203350102833781019D
:101DE000E78007006FF09FFC033401028337840211
:101DF0006386070013058400EFE0CFBA1305810066
:101E0000EFF05FDE8337010113079000E364F7FA18
:101E100093972700171700001307470AB387E700B7
:101E200083A70700B387E70067800700834704059F
:101E300093E717002308F4048336810183350403F4
:101E400013060500B385B60013050400EFF01FACC0
:101E5000E30205F68337040413050400E780070056
:101E60008347040593F74700E38607F483370403A9
:101E70001307000093060000033681013306F600C5
:101E80009305000013050400EFF05FBC6FF09FF2B4
:101E90008347040593F7E7FF2308F4046FF09FF1ED
:101EA0008347040593E717002308F4048335810171
:101EB0002338B4029306050013060500B385A50078
:101EC00013050400EFF09FA46FF0DFEE83470405D5
:101ED00013F727006308070093F7E7FF2308F404CC
:101EE0006FF05FED13050400EF0080356FF09FEC9D
:101EF0008330810303340103130101046780000070
:101F0000130101FE233C110013058100EFF09F9C9B
:101F100083358100EFF01FDDEFF05FE86FF0DFFE4B
:101F2000732710C097E70F009387C71823B0E70007
:101F300003B5070067800000130101FF233411007F
:101F4000EFF01FFEB78701009387076A3305F5009E
:101F5000EF00004B83308100130101016780000016
:101F6000130101FF23341100EF00404D8330810045
:101F70001301010167800000130101FF23341100E8
:101F8000EFF09FFB9307000273A0471073604110AE
:101F9000EF001037130500008330810013010101A9
:101FA00067800000737001106F0000001727100099
:101FB000130747409377F7006380070897261000C0
:101FC0009386364093F606FFB7070100938747BF15
:101FD000B387D740B387E700138706009726100022
:101FE0009386463C23B0E60023B40600B307F7000F
:101FF000938707FF93F707FF97E60F0023B4F60ECA
:1020000023B4070023B00700B386E7402334D7008A
:102010002330F70097E70F0023BED70A97E70F009A
:1020200023BED70A9307F0FF9397F70317E70F0034
:102030002336F70867800000B7070100938747BF82
:102040006FF0DFF9972710009387C73513870700D4
:1020500083B70700E3ECA7FE833687003306D7007B
:102060006300A602833685003306D5006384C70269
:102070002330F5006304E5002330A70067800000EB
:1020800003368500B386C6002334D7001305070046
:102090006FF05FFD17E60F000336C6046380C702CA
:1020A00083B78700B386F6002334D5008337070053
:1020B00083B707002330F5006FF0DFFB2330C50046
:1020C0006FF05FFB130101FE233C110023388100F8
:1020D0002334910013040500EFE05FCE97E70F0073
:1020E00083B74700638E070497E70F0083B707FDA8
:1020F000B377F400639207109307F4FF1307E0FE31
:10210000636CF710130704011374F400630A0400EE
:10211000937707FF938707016374F710138707000E
:102120006304071097E70F0083B747FB63E2E710EC
:10213000972610009386062703B406006F0040011F
:10214000EFF0DFE66FF05FFA9306040013840700F8
:102150008337840063F6E70083370400E39607FEC5
:1021600097E70F0083B707F86388870C83B40600EE
:10217000938404018337040023B0F600833784007E
:10218000B387E7409306000263EEF604033784004A
:1021900097E60F00938686F483B70600B387E7407F
:1021A00023B0F60097E60F0083B6C6F263F6D700B9
:1021B00097E60F0023B0F6F297E70F0083B707F01A
:1021C000B3E7E7002334F4002330040017E70F00DF
:1021D0001307C7EF83370700938717002330F700F3
:1021E0006F00C0013305E4002334F5002334E4001C
:1021F000EFF05FE56FF09FF993040000EFF04FC838
:10220000138504008330810103340101833481008C
:102210001301010267800000930400006FF01FFEAD
:10222000930400006FF09FFD930400006FF01FFD0A
:10223000930400006FF09FFC930400006FF01FFCFC
:10224000630C0508130101FE233C110023388100B3
:102250002334910013040500930405FF833785FFA1
:1022600017E70F00033787E5B3F6E700638606003C
:10227000833605FF638C060083308101033401013E
:102280008334810013010102678000001347F7FFC8
:10229000B3F7E700233CF5FEEFE05FB2833684FF3F
:1022A00017E70F00130787E383370700B387D700CB
:1022B0002330F70013850400EFF0DFD817E70F0095
:1022C000130747E083370700938717002330F70091
:1022D000EFF00FBB6FF05FFA67800000130101FEA3
:1022E000233C110023388100233491002330210145
:1022F0006308050413040500930400006F00C00187
:10230000130914008345040037250010EF00400630
:102310009B841400130409008307040063840702EC
:102320001307F03F634097021307A000E39AE7FC0E
:102330009305D00037250010EF0080036FF05FFC9D
:1023400093040000138504008330810103340101EC
:10235000833481000339010013010102678000000A
:1023600003450500678000002380A500678000000A
:10237000130101FE233C1100233881002334910016
:10238000130405009384050013055400EFF05FFD6E
:1023900013750502E30A05FE930504001385040086
:1023A000EFF09FFC8330810103340101833481000D
:1023B0001301010267800000130101FE13030500F1
:1023C000138E05001305060093850600130607000B
:1023D00093860700130708009387080013080E0070
:1023E00093080300730000002330A1002334B100E0
:1023F0002338A100233CB1001301010267800000D3
:10240000130101FF23341100130605009308000097
:102410001308000093070000130700009306000054
:102420009305000037554954130555D4EFF0DFF8F4
:10243000833081001301010167800000130101FF57
:1024400023341100930800001308000093070000D4
:102450001307000093060000130600009305000018
:1024600013053000EFF05FF58330810013010101A7
:1024700067800000130101FF2334110013060500DB
:1024800093080000130800009307000013070000E2
:10249000930600009305000037557300130595045B
:1024A000EFF09FF18330810013010101678000008C
:1024B000130101FE233C1100930710002326F100B5
:1024C00017150000130505A2EFF05FE19306000069
:1024D000130600009305C10017E50F00033505C181
:1024E000EFE00F9013054006EFF00FAE6FF05FFDC9
:1024F000130101FE233C1100930720002326F10065
:10250000171500001305059FEFF05FDD930600002F
:10251000130600009305C10017E50F00033505BD44
:10252000EFE00F8C13054006EFF00FAA6FF05FFD90
:10253000130101FE233C1100232601006F008002DD
:10254000171500001305059CEFF05FD96F0080039D
:10255000171500001305059CEFF05FD81305400622
:10256000EFF08FA61306F0FF9305C10017E50F00EB
:102570000335C5B7EFE04FAB0327C1009307100049
:10258000E300F7FC0327C10093072000E302F7FCF8
:102590006FF0DFFC130101FF2334110093070000EB
:1025A0001307300093060000130600409715000043
:1025B00093854597170500001305C5EFEFE09FEDE4
:1025C0009307000013074000930600001306004025
:1025D000971500009385859517050000130585F173
:1025E000EFE05FEB93070000130750009306000035
:1025F00013060040971500009385459317050000CA
:10260000130545F3EFE01FE9833081001301010159
:1026100067800000130101FF23341100171500002B
:1026200013054591EFF09FCB130600009305400082
:1026300013054001EFD0DFF397E70F0023B8A7AAF7
:10264000EFF05FF5EFE09FF21305000083308100AB
:10265000130101016780000000000000000000007D
:10266000000000000000000000000000000000006A
:10267000000000000000000000000000000000005A
:10268000000000000000000000000000000000004A
:10269000000000000000000000000000000000003A
:1026A000000000000000000000000000000000002A
:1026B000000000000000000000000000000000001A
:1026C000000000000000000000000000000000000A
:1026D00000000000000000000000000000000000FA
:1026E00000000000000000000000000000000000EA
:1026F00000000000000000000000000000000000DA
:10270000130101F12334110023385100233C6100EF
:10271000233071022334810223389102233CA10229
:102720002330B1042334C1042338D104233CE10411
:102730002330F1062334010723381107233C2107F6
:10274000233031092334410923385109233C6109DD
:102750002330710B2334810B2338910B233CA10BC5
:102760002330B10D2334C10D2338D10D233CE10DAD
:102770002330F10FF32200102334510EF3221014F2
:102780002330510097E20F0083B2C28F23B02200A2
:1027900073252014F32510141356F503630406065D
:1027A0002330B100930210009392F20313831200BE
:1027B000631C650017E10F0003314185EFF04FFA0C
:1027C000EFE04FFE6F0080061303430063106502C5
:1027D00017E10F0003318183EFF00FF6EFE04FE0D8
:1027E00063060504EFE00FFC6F0040041303430091
:1027F000631E650017E10F0003314181EF004020A7
:102800006F00C002938545002330B100732520146A
:10281000F3251014732630141307010017D10F008D
:102820000331C17EEF00C00D6F00400017E30F00C1
:102830000333438503310300833201007390121484
:102840008332810E73900210833081008332010144
:102850000333810183330102033481028334010392
:102860000335810383350104033681048336010572
:102870000337810583370106033881068338010752
:102880000339810783390108033A8108833A010932
:10289000033B8109833B010A033C810A833C010B12
:1028A000033D810B833D010C033E810C833E010DF2
:1028B000033F810D833F010E1301010F73002010B0
:1028C00013000000130000001300000013000000BC
:1028D00013000000130000001300000013000000AC
:1028E000130000001300000013000000130000009C
:1028F000130000001300000013000000130000008C
:102900006F0000001300000013000000130000001F
:10291000130000001300000013000000130000006B
:10292000130000001300000013000000130000005B
:10293000130000001300000013000000130000004B
:10294000130000001300000013000000130000003B
:10295000130000001300000013000000130000002B
:10296000130000001300000013000000130000001B
:10297000130000001300000013000000130000000B
:1029800013000000130000001300000013000000FB
:1029900013000000130000001300000013000000EB
:1029A00013000000130000001300000013000000DB
:1029B00013000000130000001300000013000000CB
:1029C00013000000130000001300000013000000BB
:1029D00013000000130000001300000013000000AB
:1029E000130000001300000013000000130000009B
:1029F000130000001300000013000000130000008B
:102A00006F0000006780000013000000130000004A
:102A1000130000001300000013000000130000006A
:102A2000130000001300000013000000130000005A
:102A3000130000001300000013000000130000004A
:102A4000130000001300000013000000130000003A
:102A5000130000001300000013000000130000002A
:102A6000130000001300000013000000130000001A
:102A7000130000001300000013000000130000000A
:102A800013000000130000001300000013000000FA
:102A900013000000130000001300000013000000EA
:102AA00013000000130000001300000013000000DA
:102AB00013000000130000001300000013000000CA
:102AC00013000000130000001300000013000000BA
:102AD00013000000130000001300000013000000AA
:102AE000130000001300000013000000130000009A
:102AF000130000001300000013000000130000008A
:102B000097020000938202C07390521017D10F00F9
:102B10000331415703310100833001000333810148
:102B200083330102033481028334010303358103BB
:102B3000833501040336810483360105033781059B
:102B4000833701060338810683380107033981077B
:102B500083390108033A8108833A0109033B81095B
:102B6000833B010A033C810A833C010B033D810B3B
:102B7000833D010C033E810C833E010D033F810D1B
:102B8000833F010E8332810E93E222007390021084
:102B9000833201011301010F678000001300000060
:102BA00013000000130000001300000013000000D9
:102BB00013000000130000001300000013000000C9
:102BC00013000000130000001300000013000000B9
:102BD00013000000130000001300000013000000A9
:102BE0001300000013000000130000001300000099
:102BF0001300000013000000130000001300000089
:102C0000F322001093F2D2FF13030012B3E262002A
:102C1000130585FF23305500130505F52330C50046
:102C2000130505FD97F2FFFF93820238233055000C
:102C3000130585FF2330B500678000000000000009
:102C40000000000000000000000000000000000084
:102C50000000000000000000000000000000000074
:102C60000000000000000000000000000000000064
:102C70000000000000000000000000000000000054
:102C80000000000000000000000000000000000044
:102C90000000000000000000000000000000000034
:102CA000000000000000000000000000B347B50075
:102CB0009D8BB308C500B1E79D4763F4C7049377C4
:102CC00075002A87B9EB13F688FFB306E640930731
:102CD000000463C8D706AE86BA876371C70203B81B
:102CE0000600A107A10623BC07FFE3EAC7FE93077E
:102CF000F6FF998FE19BA1073E97BE95636617018A
:102D000082802A87637E150383C705000507850532
:102D1000A30FF7FEE39AE8FE828083C6050005074D
:102D200093777700A30FD7FE8505D1DF83C6050013
:102D3000050793777700A30FD7FE8505F9FF61B7E5
:102D40008280411122E41304000483B3050083B29E
:102D5000850083BF050103BF850183BE050203BE55
:102D6000850203B3050303B88503B4611307870421
:102D7000B307E640233C77FA233057FC2334F7FDB2
:102D80002338E7FD233CD7FD2330C7FF233467FEFC
:102D9000233807FF233CD7FE93858504E347F4FAE5
:102DA000AE86BA876371C70203B80600A107A10601
:102DB00023BC07FFE3EAC7FE9307F6FF998FE19B69
:102DC000A1073E97BE956365170122644101828089
:102DD00083C7050005078505A30FF7FEE387E8FE17
:102DE00083C7050005078505A30FF7FEE392E8FEFC
:102DF000E9BF3D432A876371C3029377F700C1E3BC
:102E0000BDE1937606FF3D8ABA960CE30CE74107D5
:102E1000E36DD7FE11E28280B306C3408A069702B3
:102E2000000096966780A6002307B700A306B700A8
:102E30002306B700A305B7002305B700A304B70016
:102E40002304B700A303B7002303B700A302B7000E
:102E50002302B700A301B7002301B700A300B70006
:102E60002300B700828093F5F50F93968500D58DEA
:102E700093960501D58D93960502D58D59B79396F6
:102E800027009702000096968682E78026FA9680B1
:0C2E9000C1171D8F3E96E371C3F89DB77B
:052EA00049444C45000F
:052EA800546D725100A1
:082EB000546D7220537663009B
:102EB80074EFFFFF74EFFFFF74EFFFFFD8EFFFFF22
:102EC800E8EFFFFF14F0FFFF74EFFFFF74EFFFFF61
:082ED800D8EFFFFFE8EFFFFF58
:0C2EE0007461736B312073656E640A002E
:0C2EF0007461736B322073656E640A001D
:102F00007461736B3120726563656976650A0000D0
:0F2F10007461736B3220726563656976650A00C0
:0E2F20007461736B310000007461736B3200DA
:102F300048656C6C6F204672656552544F53210A88
:012F40000090
:102F44000600000000000000A04390BF0000000045
:04000005BF800000B8
:00000001FF
